:020000041000EA
:1000000000B5324B212058609868022188439860DF
:10001000D860186158612E4B002199600221596106
:100020000121F02299502B49196001219960352056
:1000300000F044F80222904214D00621196600F024
:1000400034F8196E01211966002018661A6600F04E
:100050002CF8196E196E196E052000F02FF8012189
:100060000842F9D1002199601B49196000215960AB
:100070001A491B48016001219960EB211966A021F2
:10008000196600F012F800219960164914480160C1
:100090000121996001BC002800D000471248134993
:1000A000086003C880F30888084703B5996A0420EC
:1000B0000142FBD001200142F8D103BD02B5186610
:1000C0001866FFF7F2FF186E186E02BD00000240BE
:1000D000000000180000070000035F00212200005C
:1000E000F4000018222000A00001001008ED00E03C
:1000F00000000000000000000000000074B24E7A12
:1001000000200420F7010010C3010010C5010010F9
:10011000C1010010C1010010C1010010C101001097
:10012000C1010010C1010010C1010010C701001081
:10013000C1010010C1010010C9010010CB01001065
:10014000CD010010CD010010CD010010CD01001037
:10015000CD010010CD010010CD010010CD01001027
:10016000CD010010CD010010CD010010CD01001017
:10017000CD010010CD010010CD010010CD01001007
:10018000CD010010CD010010CD010010CD010010F7
:10019000CD010010CD010010CD010010CD010010E7
:1001A000CD010010CD010010CD010010CD010010D7
:1001B000CD010010CD010010CD010010CD010010C7
:1001C00000BE00BE00BE00BE00BE00BE00F04BF888
:1001D000103800BEF2EB8871E87400100C75001046
:1001E0003402001090A31AE700202149086006C8D5
:1001F00081F3088810471F48006800282FD10DA4FC
:100200000ECC002902D000F012F8F9E71A491B4A77
:10021000002000E001C19142FCD1194988471949E9
:1002200088471949884700BEFDE701C901C29A42C3
:10023000FBD370470C750010C0000020C41C0020C8
:100240001091001000000420000004201091001004
:1002500000100420001004200000000070470B482C
:1002600003F040FB0047EFF30580C0B27047000089
:1002700008ED00E0000000D0C81C00202421002070
:10028000F91C001019070010251E00105756000019
:1002900006005250ABB36053146F0010060052506A
:1002A000861C0302246F0010060052505422A29DA7
:1002B0002C6F001005005250DE65F468109100109C
:1002C000F8B5C0460448054B10B5834203D0044B33
:1002D000002B00D0984710BDC41C0020C41C002077
:1002E0000000000006480749091A8910CB0F591869
:1002F00010B5491003D0044B002B00D0984710BD17
:10030000C41C0020C41C00200000000010B5074CD5
:100310002378002B09D1FFF7D5FF054B002B02D026
:10032000044800E000BF0123237010BDC81D002059
:1003300000000000106B0010054B10B5002B03D01F
:100340000449054800E000BFFFF7CCFF10BDC046E0
:1003500000000000CC1D0020106B0010F0B54546D9
:10036000DE4657464E46E0B5D04D85B0AB69DB065C
:1003700016D41026CE4FCF4CAB691E42FCD12B6851
:10038000DBB23B700D2B39D0226AA169013A914250
:1003900016D00B70A3690133A361AB691E42EBD089
:1003A000C54BC44C03931B78002B2CD10023039A1C
:1003B000137005B03CBC90469946A246AB46F0BDD2
:1003C000636A206862689B461B1A9B10D31A012B34
:1003D00000D80AE18020800004F09AF95B4658605A
:1003E000A2693B781370636A1A1D626280225B689F
:1003F00092009A18E3612262A361CEE7AE4B1A0025
:10040000039301231370AD4804F03EFBAC4B6069CD
:100410009B4601235A461370626AE569121A9210CC
:10042000A0692169A368013A401B52021218C81A38
:1004300012180292002AB9D01878A24A10704028E7
:1004400000D163E1002301939F4BA1469A469F4E42
:100450009F4F04F0C7FA4A464B4612699B68013A1F
:10046000934200D1B0E04A4601339360954B994ADC
:100470001B789B00D458984B9C4232D0974B9C429F
:1004800000D197E0002352463B6023781370002B85
:1004900027D08022D025920490462D065A46127805
:1004A000002A01D040226A61802292046A61306889
:1004B0002E2B01D04300181800F0DEFE5B461B789F
:1004C000002B01D04023AB6143463068AB6100F0A4
:1004D000D3FE52463B6801333B60E35C1370002B54
:1004E000DCD133685800C01800F0C6FE019B029AA8
:1004F00001330193934200D158E74B469B68714A00
:10050000187810704028A4D14C46216901398B42DB
:1005100000D1EDE0581CA06005F0FCFB05000528AB
:1005200000DA052596202900C00003F009FA290009
:10053000020030606A4804F029FB6369666AE16979
:10054000F61AA069B310013B2769401AA2685B0242
:100550001B18D11B7D1E994200D127E7614B98469D
:10056000AA420BD0B310013B5B0201321B18A26000
:10057000D11B994200D119E7AA42F3D1E06804F0F7
:10058000CBF880216269666A131D52688900F61AE9
:1005900057186361A069E169B310013B5B02401A1F
:1005A0001B18E2602761A260434500D1FEE64E4B76
:1005B000D518D5E7202004F015FA33685800C01884
:1005C000400000F059FE91E74B46D86804F0A4F8CB
:1005D0004B4649465B691A1D4A6180225B6892005E
:1005E0009A18CB600A618B6040E75B4661695B1AD1
:1005F0009B109A460223534499465B009A4210D9B5
:100600004B468146D31A5B089B0099445B460433F2
:100610005A1A49453CD9994227D0484606F068FA0B
:1006200023E0002A3ED00132530098462F4B9845D4
:100630006ED84346980004F06BF84A46434683461A
:100640009B1A5B089B005B449946636A61691A1DAB
:10065000914203D0521A484606F04AFA206804F044
:100660005BF85B4623604346636080224B46920002
:10067000944663611B68E3606344236153469B00B7
:100680004B449B4663621B68E36163442362A1E6BB
:100690009942EAD05346581C8000801A484406F01C
:1006A00027FAE2E703239846C3E7C0460040034029
:1006B000161F0020E81E0020141F0020106B0010E1
:1006C0009C130020191F0020181F0020A0130020D9
:1006D000B81E0020A0110020646E0010286B0010CE
:1006E000146B001000FEFFFFFF010000FFFFFF3F43
:1006F000E06804F011F8636958681A1D80239B00B4
:10070000C3186261E0602361A06005E7014EFDE669
:1007100004F0B4FAA013002070B504F043FAE1210C
:10072000284C4902200001F061FAC022236B12021A
:100730001340254A254D13606022E36A20005A4089
:100740006E2313402B60002101F0C2FA1023E26AED
:10075000022113402B60002000F064F802210120E8
:1007600000F060F8FA20800000F086FD062000F01E
:1007700089F8D0241920802500F084F8402324062D
:10078000AD046362012201210620656200F062F877
:100790006420656100F070FD6420A56100F06CFDCF
:1007A00096206561400000F067FD6420A56100F0BF
:1007B00063FD6561642000F05FFDA561FFF7CEFD7C
:1007C000FCE7C04600400340305003402C5003403B
:1007D000002370B5124C20202360A360E3602361E6
:1007E0006361A361E361236263620833636003F0C2
:1007F0008FFF63682060013B5B089B00C518802069
:10080000800003F085FF80239B00C318286065618A
:100810006562E0602361E0612362A060A06170BD59
:10082000E81E0020094A830094464022634410B524
:100830001C68C0006240C02414408022520113434F
:100840001C60034B9C466044416010BD04C00140E5
:10085000004001400A4B80009C460423604400296C
:1008600001D00C230821002A00D10B00026853405C
:100870000C221A4080235B01184302607047C04677
:1008800004C001400123D022834012069362936189
:10089000094A83009446402263441968C0004A40D4
:1008A000C02111408022520113431960034B9C4622
:1008B000052360444360704704C00140004001408C
:1008C000F8B5EFF3108772B60D4E3368002BFCD0ED
:1008D000BFF35F8F0725CB08C01801230D40AB4045
:1008E0001D000478254007D123430370BFF35F8FB9
:1008F000356087F31088F8BD100001F095FAC04606
:100900002C0100D0024B18688007C00F7047C0460A
:1009100000C006400021044B044ABFF35F8F02C3AE
:100920009342FAD17047C046000100D0800100D048
:10093000044A1078431CDBB2172B00D91023137024
:100940007047C046A413002001238340002904D02F
:10095000034A1360034A13607047034A1360FBE7BE
:1009600080E200E000E100E080E100E0024B1030B6
:100970009B688000C058704700ED00E070B50D0026
:10098000EFF3108672B60F4A1368002BFCD0BFF34A
:100990005F8F0D4B10309B6884001B590B4A9342AC
:1009A00003D09D4201D001F057FA074B9B681D51BF
:1009B000BFF35F8FBFF35F8F0022024B1A6086F395
:1009C000108870BD240100D000ED00E0CD010010C2
:1009D000F0B54546DE4657464E46E0B50D0083B0BD
:1009E000EFF3108A72B65A4A1368002BFCD0BFF39B
:1009F0005F8F1022914681444A46564B96009B6871
:100A00009C59554B98469C4205D0AC4216D0534F4A
:100A1000E31B2F2B14D94F4B9B689C51BFF35F8F67
:100A2000BFF35F8F00224A4B1A608AF3108803B02D
:100A30003CBC90469946A246AB46F0BD1C00EAE796
:100A4000012383409B465A46454B1B681A4000923F
:100A50005A46444B1A60BFF35F8FFFF704FC0190C6
:100A6000002803D0814501D001F0F6F901232200CE
:100A700006219A43936851569D420AD152E04B0099
:100A80005B1806219B00FB1898685956A8420FD0A6
:100A90001A000029F3DA009B002B05D05A46324B8E
:100AA0001A602F4B1A60B6E75A462E4B1A60B2E70F
:100AB000002921DB4A00501880003D188046A868B4
:100AC0009860E879D871062028569871002826DBAE
:100AD000AD88F81A6D052D1545444019E02500052F
:100AE000400D2D02284398805218204B9200BF18C9
:100AF0001A781970BA71CEE70199002918D1002A25
:100B000023D0FF3191711A49918018490A789A715E
:100B1000184ADB1B5B415A43120D0A70BBE7BD202C
:100B20000002E0E713000029C4DA019A002A0CD081
:100B3000114A1249D21A083A5002400D01439980D5
:100B40000F4952080A43DA80A5E74446DDE7C0466C
:100B5000240100D000ED00E0CD010010A81300201A
:100B600000E100E080E100E080E200E0171F0020EB
:100B700000BDFFFFAAAA0000E213002000F0FFFF63
:100B800000F8FFFFF8B5012504000543FFF76BFBF4
:100B9000EFF3108672B6214A1368002BFCD0BFF326
:100BA0005F8F1F4B1F4A2100C91A49414A43120D4A
:100BB0001D4980008F6852B23F58AF421CD00621B9
:100BC000595691421CD012215956914222D01E21D1
:100BD0005956914220D02A2159560320914210D0D3
:100BE000124B19781A70A171BFF35F8F00220B4B63
:100BF0001A6086F31088F8BD8B680D491950EFE72D
:100C000000204100091889005B18FF2199710949EA
:100C10009980E5E70120F4E70220F2E7240100D003
:100C2000A8130020AAAA000000ED00E0171F002072
:100C3000CD01001000BDFFFF054B064A1360064AB8
:100C4000136053609360D360136153619361704785
:100C50008080808000E400E004E400E0024B9C46D9
:100C600061448900016070474000003483680B488C
:100C700010B5844661446244090112019A1859185A
:100C800054684B6801209C4201D802D00020C0B2B9
:100C900010BD12680B689A42F9D8F7E7FFFFFF0F03
:100CA0000A4B1968EFF3108072B60A68002AFCD06C
:100CB000BFF35F8F1B68BFF35F8F00221A6080F362
:100CC000108840BF002000217047C046D41E00207D
:100CD000F8B5454657464E46DE46E0B514000DAA27
:100CE00012781D000CAB92461B7802688146904634
:100CF000002B13D1977B002F4AD040467E0012680C
:100D0000F619033E921951783B008173002900D1F6
:100D1000C173002191705170117003E01F005E00DB
:100D2000F618033E2E4A94464A4692686344944617
:100D30001B010A9A63449A600B9A1C605D60DA603A
:100D4000434600221B689B199A705A701A704346DA
:100D50005B7B9B46002B2BD043463A009868594654
:100D60005B6898475B4642465B005B44033B126806
:100D7000002814D0D31896195A46B2701A78002A4F
:100D800000D072701F705A4643465A73BB4511D04B
:100D900038003CBC90469946A246AB46F8BDD318F5
:100DA00096199F703278002A00D05A705B463370D3
:100DB00043465F734B462200187D2B0000F03EFB3C
:100DC000041E07D05346002B04D14B463900186847
:100DD00000F0B2FE0E9B002BDAD01C70D8E7C046A4
:100DE000FFFFFF0FF0B5DE4657464E46454600234F
:100DF000E0B58DB00A936D4B8200D45800239B461A
:100E00000B9000F0B9FA6268EFF3108572B61368C0
:100E1000002BFCD0BFF35F8F23689C465B7B994619
:100E2000002B00D16BE0A268614B90464B441B0144
:100E3000984443461E685F6832003B00121A8B419B
:100E4000002B65DD3B0032000B9800F0F7FA002321
:100E5000002208920993002300279A466368BFF393
:100E60005F8F5A461A6085F310885346002B08D1CD
:100E70000028C6D10DB03CBC90469946A246AB4670
:100E8000F0BD0A9B390018024B461843D0476268F0
:100E900006900791EFF3108872B6564645461368E0
:100EA000002BFCD0B246A846BFF35F8F0699079A85
:100EB000131E49DB194302D02369002B5FD123683D
:100EC000DA7B002A07D051008A1819688C464946F7
:100ED0006244033A51704A46DA73E2684B469446DC
:100EE000013B63441A7801321A705B4623616368E0
:100EF000BFF35F8F5A461A6088F3108881E700239A
:100F0000002208920993002300279A460020A5E7B3
:100F1000002B01D1002A95D10021604600F02EFD62
:100F200043461A685B680892099343469B689A4651
:100F30004346DF68E3684B44013B1B780A931B027E
:100F400003432361002089E72369002BB7D0089D64
:100F5000099E6D1A96412A003300089D099E9E4203
:100F600018D81BD05946049101210391494602919A
:100F70005146019700912000FFF7AAFEB5E700F067
:100F8000FBF9069A079B12184B41994202D8E9D106
:100F90009042E7D901225242D317E3E708999142E0
:100FA000E0D901225242D317DCE7C046C01E002020
:100FB000FFFFFF0F10B5124C6368002B04D00A210D
:100FC0001048FFF74BFE10BD23000F4A1021206888
:100FD00000F0F6FA032000F0C3F9032000F0A2FAB3
:100FE0000A49032000F0E4F9FFF7A2FC084B9C46F5
:100FF000032360442375074B80006060DC60DEE7FC
:10100000F0130020D41E00206D0C0010E50D001020
:1010100040000034C01E0020F0B557464546DE466D
:101020004E46E0B585B00092019310AB1B780027C7
:101030000393002380469A4643465A68EFF310898B
:1010400072B61368002BFCD0BFF35F8F43461D6858
:10105000AC7B002C4FD0660036192B68033E9B19E1
:101060005A78AA73002A00D1EA7342469F705F70D3
:101070001F7092684E4B94460099019AE3181B0129
:10108000634419605A600E9A9A600F9ADA602B686E
:101090009B199F705F701F706B7B9B46002B42D02B
:1010A00022001900A8686B6898475B465B005B44A8
:1010B000033B2A6800282DD0D31896195A46B270DF
:1010C0001A78002A00D072701C705B466B735C4506
:1010D0002AD04346DB681B19013B187843465B68FE
:1010E000BFF35F8F1F6089F310885346002B2AD10E
:1010F0000002204307E05B68BFF35F8F1C6089F349
:1011000010880120404205B03CBC90469946A2465A
:10111000AB46F0BDD31896199C703278002A00D0E7
:101120005A705B4633706C734346187D009A019B7E
:1011300000F084F982460028CBD04346210018688D
:1011400000F0FAFCC5E7039B002B2FD00E9B0F99F4
:101150000020984703000B4328D004000D1E0DDA31
:101160000098019902000B00121BAB41994213D861
:1011700018D000920193039B9A465DE700F0FCF8BB
:1011800024184D4123002C0000930194A94203D858
:10119000F1D1009B9842EED901235B42DC1700930A
:1011A0000194E8E700999142E3D9F5E70020AAE726
:1011B000FFFFFF0FF0B504000D0006267642F7177B
:1011C000C64636196F4100B584B08F4214D811D08D
:1011D00000F0D2F832003B00121A8B41002B15DCD4
:1011E000002B3ED02000290000F0D2F804B004BC4F
:1011F0009046F0BD8642EBD90026002700F0BCF8EF
:1012000032003B00121A8B41002BE9DD00230293D0
:101210000193154B3200009314483B00FFF7FCFE8E
:101220000028DFDB00239846BC46114A114F7B6A39
:101230009C4504D8B96AB142D4D29C45D2D1116838
:10124000EFF3108072B60B68002BFCD0BFF35F8FFA
:101250001368BFF35F8F4146196080F3108820BF89
:10126000E5E7002ABED0D1E7A10C0010F013002062
:10127000D41E00200040054070B5060000F07CF848
:10128000FA2204000D00920000233000002103F038
:10129000B1F9001969418D4205D802D0FFF78AFFE4
:1012A00070BD8442FAD901204042C117F6E7C0461A
:1012B000F0B5C64600B5EFF305833F221340180092
:1012C0001038EFF3108772B61F4D2A68002AFCD041
:1012D000BFF35F8F012211008140884644461B49BD
:1012E0004C631B4C2678A4463400C440224015D0E1
:1012F0004C6A1849820051588C4217D3164BD25869
:1013000043469E4363461E70BFF35F8F00232B60EE
:1013100087F31088002A06D0904704E0BFF35F8F60
:101320002A6087F3108804BC9046F0BD0B4A9B00EE
:10133000944663441A681A60BFF35F8F00232B60E2
:1013400087F31088EFE7C046280100D00040054031
:101350001A1F0020D81E0020341E0020D03F054058
:1013600010B50100024A0348FFF7AAFA10BDC046B3
:10137000386C0010151F0020044A516A00E0190063
:10138000906A536A9942FAD17047C04600400540BE
:10139000064A536A9942FCD807D1044B02E05A6AC4
:1013A000914202D19A6A8242F9D3704700400540C7
:1013B00070B504000D00EFF3108672B61A4A136878
:1013C000002BFCD0BFF35F8F002D1BD02000FFF758
:1013D000CDFA164988420AD02000FFF7CFFA012142
:1013E0002000FFF7B1FA0123A340114A1360114B0B
:1013F000A400E550BFF35F8F00220B4B1A6086F309
:10140000108870BD0B4BA200D5500122A2400A49A2
:1014100020000B7893430B700449FFF7D9FA0021A1
:101420002000FFF791FAE5E7280100D0B112001083
:1014300038600540341E00201A1F0020F0B5D64643
:101440004F464646324CC0B5656A00E00D00A66ABC
:10145000616AA942FAD1AB4209D806D00124200022
:101460001CBC90469946A246F0BDB242F6D9EFF3B5
:10147000108972B6274C21680029FCD0BFF35F8F1A
:101480000126254986408C460978244D0F003743B4
:101490008846F9B28A46614654460C701C49041DC0
:1014A000A4004E636250840063510D6A00243542EB
:1014B0001AD04D6A00E025008F6A4C6AAC42FAD11E
:1014C000AB4219D801D1BA4216D8C2451DD0104B33
:1014D000134A1E625E631F2318401E3B8340136045
:1014E0006346424601241A70BFF35F8F0022094B06
:1014F0001A6089F31088B2E70024BFF35F8F0022DF
:10150000044B1A6089F31088A9E70124ECE7C04670
:1015100000400540280100D01A1F0020D81E0020DE
:1015200080E200E010B5EFF3108472B60A490B6850
:10153000002BFCD0BFF35F8F01238340074A08488C
:10154000136202789A430270BFF35F8F00230B602F
:1015500084F3108810BDC046280100D0004005402B
:101560001A1F002070B506000D00140000291ED0BF
:10157000002A1ED073688068984763006A001B19B0
:101580005219033B033A3168002808D0CB188A1857
:101590009D70117800290ED11470280008E08A1877
:1015A000CB1894701978002900D051701D7020005C
:1015B00070BD0800FCE7597028001470F8E7C046B9
:1015C000F0B5DE4657464E464546E0B583600023FB
:1015D00089B04260026806914373C9B20133059134
:1015E00001738373C1730492012900D8A4E00A0037
:1015F0004B1ED9B2931E0791072B00D8AEE00025F1
:10160000CB080393049B564C591C564B56489B469B
:10161000564B9A46564B9C46564B0293524663464F
:101620005F465E4662401A40504B2740FB185A40C6
:101630000640534601966646434033404B4E0A707F
:10164000B046019E0135B146C84446467340160473
:10165000360ECE701602120E4A721A04120E0B7358
:10166000CA731A021B0E4B75029B360E5C40634612
:101670001C40404B120E9846029B4744584063461C
:1016800018404B4643445840039BEDB28E718A7418
:101690007C401831AB42C1D1079907230A009A4315
:1016A000531CDBB2914247D0049C5A00A446D21886
:1016B000591C6244059DC9B2033A51708D423BD911
:1016C0004A005218981C6244C0B2033A50708542D6
:1016D00032D942001218D91C6244C9B2033A51707F
:1016E0008D4229D94A005218181D6244C0B2033AEB
:1016F0005070854220D942001218591D6244C9B267
:10170000033A51708D4217D94A005218981D62440D
:10171000C0B2033A507085420ED942001218D91D4A
:101720006244C9B2033A51708D4205D94A00521839
:101730006244033A08335370FF23069A134059005A
:10174000C918049B9C460023614403394B7009B0BF
:101750003CBC90469946A246AB46F0BD0123A3E7A8
:10176000010203047F7F7F7F050607080101010155
:10177000808080800808080870B50400002907D020
:101780004B0000685B18033BC3185A78002A01D14C
:10179000080070BD5500AD18033D4019002546787E
:1017A00045705D702000FFF7DDFE31000500200070
:1017B000FFF7E2FF290002002000FFF7D3FE01003F
:1017C000E6E7C046F0B54E464546DE465746E0B52C
:1017D0000E0074000168A41985B0033C01920A1937
:1017E0000500107800284CD043001B18033BCB1891
:1017F0005F78BC46002F16D1019C002C3ED0EC7BBC
:10180000002C04D063001B19CB18033B5E70EE73F1
:1018100000282FD10023537005B03CBC9046994658
:10182000A246AB46F0BD7A006244033A89184A7872
:10183000934600224A7090465A7001003A002800F0
:10184000FFF790FE5B468146002B07D05B002968BE
:101850005B44033BCB185A78002A16D15A464946B6
:101860002800FFF77FFE2968019B0A19002BC6D1CB
:101870000028CFD043001B18033BCB1800219970E0
:10188000C8E7019B002BBAD1C4E750008018033889
:1018900009184878824640464870587059462800D2
:1018A000FFF760FE53468346002B07D05B00296894
:1018B0005344033BCB185A78002A06D15946524666
:1018C0002800FFF74FFE8346C8E750008018033812
:1018D000091840464F7848705870514628000297C2
:1018E000FFF740FE8246002F08D0BC467B002968E7
:1018F0006344033BCB185A78002A06D15146029A1A
:101900002800FFF72FFE8246D8E7500080180338E2
:10191000091840464F78487058700299280003977C
:10192000FFF720FE8046002F08D0BC467B002968C8
:101930006344033BCB185A78002A06D1039A4146E8
:101940002800FFF70FFE0290D8E70320504303382A
:10195000091800204F784870587003992800FFF745
:1019600001FE390002902800FFF706FF02990200ED
:101970002800FFF7F7FD0390E0E7C046F0B54E46BC
:101980004546DE465746E0B5467B050074000068D4
:10199000A419033C85B002190191117800294ED099
:1019A0004B005B18033BC3185F78BC46002F18D16F
:1019B000019C002C40D0EC7B002C04D063001B1950
:1019C000C318033B5E70EE73002931D10023300051
:1019D0005370697305B03CBC90469946A246AB462D
:1019E000F0BD7A006244033A8018427893460022A0
:1019F000427090465A7028003A00FFF7B3FD5B46EC
:101A00008146002B07D05B0029685B44033BCB1861
:101A10005A78002A17D15A4649462800FFF7A2FDF6
:101A2000019B010028680219002BC4D10029CDD0E8
:101A30004B005B18033BC31800209870C6E7019B5E
:101A4000002BB8D1C2E75000801803380918487835
:101A5000824640464870587059462800FFF782FD7C
:101A600053468346002B07D05B0029685344033B51
:101A7000CB185A78002A06D1594652462800FFF75B
:101A800071FD8346C7E750008018033809184046A7
:101A90004F7848705870514628000297FFF762FD52
:101AA0008246002F08D0BC467B0029686344033B74
:101AB000CB185A78002A06D15146029A2800FFF71F
:101AC00051FD8246D8E75000801803380918404677
:101AD0004F7848705870029928000397FFF742FD2D
:101AE0008046002F08D0BC467B0029686344033B36
:101AF000CB185A78002A06D1039A41462800FFF7EE
:101B000031FD0290D8E70320504303380918002024
:101B10004F784870587003992800FFF723FD39006B
:101B200002902800FFF728FE029902002800FFF724
:101B300019FD0390E0E7C04670B5040000292CD0E1
:101B4000437B8B422ED00568480040180338281884
:101B50008278002A21D053009B18033BEB181A7897
:101B60008A4202D11BE0002A08D053009B18033B95
:101B7000EB185A788A42F6D142785A700023012233
:101B8000837043702000FFF71DFE617B0200200080
:101B9000FFF7E8FC6073012000E0002070BD427890
:101BA0001A70EBE701221900FFF70CFE60730120A9
:101BB000F4E7C04610B50400FEF7BAFE01002000AD
:101BC000FFF74CF8FF232371BFF35F8F10BDC046B2
:101BD00010B50400FEF7ACFE01002000FFF73EF850
:101BE000FF23A380BFF35F8F10BDC046F8B504008C
:101BF00006200D0000F096FA002845D02B4B2C490A
:101C0000E3185A4253418022D20394465B42134068
:101C1000284A63441360284A136018008A68904376
:101C2000FBD1224B8021E3185A425341234A5B00E7
:101C300049000620995200F075FA2900C00001F011
:101C4000A7FEC30921D14027012226008025626218
:101C5000A36200232C36AD0135432B60062000F033
:101C600061FA3900800001F093FE6023E26A53407C
:101C70006E221A4080235B0133431A60104B2363AA
:101C800010232B600D3BA364F8BD0E4A934203D989
:101C900000230D4F0D4AD8E77F2210400130400845
:101CA0009F011A003F180300CFE7C0460080FCBF29
:101CB00000C0004000E0004000F000401C1F002079
:101CC00001030000FEFF0000C0FF3F00FFFF000017
:101CD0004B1E9941F52349429943054B01319C46DE
:101CE000604443425841034BFF314000C1527047AA
:101CF0000080FCBF1C1F00202D4B2E4A70B51A60BF
:101D00002D4A2E4B2E491A6010008B689843FBD148
:101D10002C4C2D4B9C4209D2013B1D1BAD080135BB
:101D2000AD002D1908CC9847AC42FBD100F09AF8D1
:101D3000264A224B1A60224A9368DB018033FBD18A
:101D40004022234B234D24489A675A671A67DA6664
:101D5000A84205D30EE0FFF73BFF2000AC4209D2BA
:101D6000040003680834002BF5D1FFF723FF20009F
:101D7000AC42F5D3194C1A4DA168C022280002F0DC
:101D8000C1FCA560FEF7C6FDFEF756FFFFF712F98E
:101D9000144C154B9C4209D2013B1D1BAD0801356B
:101DA000AD002D1908CC9847A542FBD170BDC046A7
:101DB00000E00040BFCDFBFEFE7F3C0000F0004095
:101DC00000C00040A81C0020B81C0020FFFFFF013D
:101DD00000F00140A81C0020A01C002000ED00E045
:101DE00000000020B81C0020C41C002000BEFDE73D
:101DF000094A1368002B06D008491818884208D8E9
:101E0000106018007047064B044918181360884288
:101E1000F6D901235B42F4E7B41E00200000042041
:101E20002421002000BEFDE70FB400B5084883B0B0
:101E300002F02AFE049B002B07D005A9180001918F
:101E400001F030FD034802F01FFE00BEFDE7C04672
:101E5000686C0010786C001010B50148FFF7E4FFC3
:101E60005C6C001030B50C2083B000F0B5F9FEF7C3
:101E700049FD00280ED0944B944A1A605A609A602B
:101E8000DA601A615A619A61DA611A62904A5A629A
:101E900003B030BD8F4CA06700F0A6F901228E4B35
:101EA0001A60636C012BFCD103228C4B1A60894AA7
:101EB000936B012BFCD101330093894A0433012138
:101EC000884800F035F90523874A009301218748A7
:101ED00000F02EF9864B5A68FF2A02D88022520061
:101EE0005A608022784C7D4B21691201804D1A6026
:101EF000002905D0606901F04BFD01300138FDD1AA
:101F0000E0217B4B02201A681140802252012A43B3
:101F100011601968484003210140116004219A684A
:101F20001142FCD08022802192012A4309011160D4
:101F3000802252005A606F4B23616F4B5968FF2912
:101F400000D85A6003226C48634B01211A600200DA
:101F500093681942FCD0E02513681D4080235B0183
:101F600003431D6012684A40032111401960022199
:101F7000614A93681942FCD0802380219B0103436E
:101F80000901196080215D4B4900516063615C4B20
:101F90005A68FF2A00D8596080225A4BE169120121
:101FA000574D1A60002905D0606901F0F1FC01303D
:101FB0000138FDD1E02252490B681A4080235B01B1
:101FC0002B431A60802380229B012B4312011A604D
:101FD00080223E4B52004A60E3614B4B5968FF2917
:101FE00000D85A608022494B216A1201464D1A607E
:101FF000002905D0606901F0CBFC01300138FDD12A
:10200000E02241490B681A4080235B012B431A6090
:10201000802380229B012B4312011A6080235B00E6
:102020004B602A4B3A4A23623A4B5968914201D895
:1020300001325A608022384B616A1201354D1A60B4
:10204000002905D0606901F0A3FC01300138FDD101
:10205000E02230490B681A4080235B012B431A6051
:10206000802380229B012B4312011A608023DB0214
:102070004B60174B6362294B5A68FF2A02D88022B3
:1020800052005A608022264BA1691201234D1A602A
:10209000002905D0606901F07BFC01300138FDD1D9
:1020A000E0221E490B681A4080235B012B431A6013
:1020B000802380229B012B4312011A6080235B0046
:1020C0004B600E4BA361E3E6441E0020006CDC0273
:1020D0001BB70000008000403CB0004030B0004022
:1020E000002F685900800240008C864700C00240E3
:1020F00030800040001BB7003C800040405973070F
:102100005480004054B000406080004060B0004007
:10211000FFFF03006C8000406CB00040488000402E
:1021200048B00040014B8000C0587047441E00205A
:10213000F8B504000C201E0017000D0001F028FC6B
:102140004201121A9101891AC9000918890138003F
:1021500001F01EFC069B226836041B033343002A51
:1021600021DB194A194EA21851424A4180214901E6
:102170008C4652420A40164962440A6015490A6078
:102180001700B1688F43FBD1C021221D8901114383
:1021900021222560A0600A602268002AFCDAE36040
:1021A00008230B60F8BD3F2221680A40AA42D8D11B
:1021B000A2681205120D8242D3D1EE21E268C90253
:1021C0000A409A42CDD1EDE70040FDBF00C000407B
:1021D00000E0004000F000408023024A9B000343DF
:1021E000D362704700800540AA23064A1B01136092
:1021F0002F230549D360054B19605368002BFCDA87
:102200007047C0460040024000B0FA000060024043
:102210007047C046F8B557464E464546DE46E0B5DF
:1022200099460A9B07009A460D9B884693460B9E4B
:1022300015009B070FD10C9B9E420CD29D1B0E00DC
:102240005D44541C4B4631002020B8472200A54273
:10225000F7D1B0460B9E002E28D04446AD19534608
:10226000AA1B013E985D21004B46B847002EF6D1CF
:1022700023002C0098460D9B9B0710D55B46E51A62
:102280000C9BAB420BD946462200984601344B4684
:10229000310020200135B8472200A845F6D820009B
:1022A0003CBC90469946A246AB46F8BD2C00E2E7FE
:1022B000F0B54F464646D646C0B584B098460EABFC
:1022C0001B7894469946129B0D9C109F119E9A076D
:1022D00024D401221A409246002E62D1BC420CD274
:1022E0001F2C00D9B8E00C9A551E302201E0202C9A
:1022F00003D001342A55A742F9D85246002A0DD0FE
:10230000A6420BD9202C5AD00C9A551E302201E03F
:10231000202C54D001342A55B442F9D1DA0632D5F2
:102320005A0555D4002C4FD10F9A102A00D18CE0B9
:10233000022A00D17EE030220C9C22704A46012401
:10234000002A25D02D220C9D2A55013403930C9B85
:1023500002960093019443466246FFF75BFF04B088
:102360001CBC90469946A246F0BD202CEED00C9A9B
:102370001519013478222A70202CE7D030250C9AC8
:10238000121915700134202CE0D04A46002AD9D108
:102390005A0728D41A07D9D520220C9D2A55013472
:1023A000D4E7002A24D04A46002A28D10C321A4207
:1023B00025D1BC42A4D21F2C95D9202E1DD9202472
:1023C000DA06C3D55A0503D4A7421AD0B44218D0AE
:1023D0000F9A102A1FD0022ACED1202CB6D00C9AE8
:1023E000121901342EE02B220C9D2A550134ADE741
:1023F000BC4293D21F2C00D875E720248EE7013E03
:10240000D7E7621E002A10D00F9D102D2DD0022D6F
:1024100015D01400B2E79A06A7D5202C96D05825DF
:102420000C9A121915700134A6E70F9C102C15D0C8
:10243000022CEED162220C9C227001249EE70C9D9E
:10244000AA4652446225157096E79A06E7D4782288
:102450000C9C2270012491E720244EE79A06F6D5C1
:1024600058220C9C2270012488E7023C9D06D6D499
:102470000C9D2D1914007DE710B5002800D110BD6A
:1024800002F0B0FAFBE7C04610B5002803D04A6856
:102490000B681100984710BDF0B5454657464E46AB
:1024A000DE46E0B59BB0249D259C82468846099275
:1024B00099462A0023002800210001F032FD00285F
:1024C00000D0CBE00122D94B52422800210001F07C
:1024D00023FD002800D0C1E00122D54B5242280044
:1024E000210001F00BFD002800D0B7E000220023FE
:1024F0002800210001F002FD002800D0EDE1AB46EC
:1025000008948023289ADB001A40119201D10623F7
:1025100026935B460C9380235946289A1B011A4048
:10252000089B10920B4300D0AFE0002A00D0BFE11F
:1025300004260D930E930C9300230A93279BB3421A
:1025400001D99B1B0A930227289B1F4005D0734289
:1025500073410A9A5B421A400A920C9B002B07D0E7
:10256000584608990D9A0E9B01F067FC8346089126
:10257000002200232800210001F0C0FC002805D023
:10258000802000068446089961440891289AA94B46
:10259000414613405A4604930A9B50460393269B98
:1025A0000293089B009201934B46099A00F0A2F90E
:1025B000002E63D0289B02009C061F23E4179C4337
:1025C0006534431C089320004B464146D0470C9B82
:1025D0000024DA179D18DB0F9B46731E55400C93A1
:1025E00002E00500202C11D00AAA94461F230134D2
:1025F00063440A2128001E1901F0CAF930313170F4
:1026000028000A2101F0C4F9092DEAD80523069310
:102610000C9B01940593002304930A3303935B46B8
:10262000029312AB0093089A4B4641465046FFF77F
:102630003FFE002F22D0099BC41A279BA3421DD91D
:10264000020057461E00551C4B46414620200134CF
:10265000B8472A00A642F6D828000FE0289B2A0097
:102660000493279B41460393269B504602932300E5
:10267000009201934B46099A00F03CF91BB03CBC18
:1026800090469946A246AB46F0BD6B4A089B9446DD
:102690005800400D604401F057FC684A684B01F057
:1026A000EAFB684A684B01F0BFFB089B674A1B03C3
:1026B0001B0B1A4306000F000C981100644B0022FC
:1026C00001F0A9FB634A644B01F0D5FB02000B004B
:1026D0003000390001F0A8FB01F04EFC0C9001F035
:1026E00033FC5E4A5E4B06000F0001F0C4FB002283
:1026F0005C4B01F099FB01F03FFC5B4A5B4B0D909A
:102700003900300001F0B7FB06000D980F0001F012
:102710001BFC574A574B01F0AEFB02000B00300088
:10272000390001F078FB02000B000A900B9101F0D8
:10273000A2FB06000F000A980B9902000B0001F0A3
:1027400073FB00220E900F914B4B3000390001F0CB
:1027500074FB0022494B01F067FB02000B003000C4
:10276000390001F06AFB0022454B01F05DFB0200DD
:102770000B003000390001F060FB0A9A0B9B0F0040
:1027800080210600C905002001F045FB02000B0076
:102790003000390001F048FB3A4F02000B000E9860
:1027A0000F9901F04AFB0022284B01F03DFBBC468B
:1027B0000D9A624416000022330501F05CFB07000D
:1027C0000D900E000E9102000B005846089901F082
:1027D00095FB00285ED13B003200C6260C99633180
:1027E0008E42B641109976420436002900D1A3E604
:1027F000134361D0089F244A244B5846390001F006
:1028000083FB002807D00022214B5846390001F0F5
:1028100075FB002850D1269B002B00D18CE6119B24
:102820005A1E9341269AD31A269385E6FFFFEF7F1F
:10283000FFFFEFFFFFF7FFFF01FCFFFFFB799F505A
:102840001344D33FB3C8608B288AC63F0000F03FD3
:102850000000F83F61436F63A787D23F71A37909F6
:102860004F930A400000E03F1655B5BBB16B0240E4
:10287000EF39FAFE422EE63F00002C4000002440D3
:1028800000001840FF0300002D431CEBE2361A3F06
:1028900080842E410C9B0022013B0C930D98144B1D
:1028A0000E9901F0CAFA03000D900A000E9194E708
:1028B00000230D930E930C93269B19000C9B9942B9
:1028C00013DDCB1A013B26938023289ADB001A43A1
:1028D0000023289200260C932EE680231B069C469C
:1028E000A4446346AB4608930BE600232693EBE72C
:1028F00000002440F0B5DE4657464E464546E0B55A
:1029000097B08046894692469B46209A219B1000AC
:10291000190001F006FB002800D01FE22098219941
:102920000122CC4B524201F0E9FA002800D03EE1EE
:10293000209821990122C84B524201F0EDFA00285B
:1029400000D0E7E0209821990022C44B01F0E4FA7E
:10295000002800D0C7E0209821990022C04B01F048
:10296000CDFA002800D0BEE0209821990022002353
:1029700001F0C4FA002800D0E1E0002380240D9388
:10298000249BE4001C4000D0E9E000220626B54B61
:10299000069207930EAB08932098219901F0ECFA68
:1029A00007000C9001F0D0FA02000B00209821994A
:1029B00001F031FA069A079B01F05DFA0A900B913B
:1029C00001F0FEFA0500099001F0BAFA02000B00CE
:1029D0000A980B9901F01FFA0022A34B0A900B9161
:1029E00001F09AFA002800D148E12B0001331800C9
:1029F000099301F0A5FA069A079B01F085FA0028D1
:102A000004D03B0001330C9300230993002E00D027
:102A1000D5E00C9D280001F097FA02000B002098E9
:102A2000219901F0F8F900228F4B06000F0001F008
:102A300065FA002808D100228B4B3000390001F0E4
:102A40006BFA002800D17EE1202C00D1FAE00C9F27
:102A50000A21380000F074FF089E303131553800EB
:102A60000A21651C00F06CFF002800D180E1202DB8
:102A700000D1E7E00A2100F063FF303171553800E2
:102A8000642100F05DFF0234051E14D0202C00D11B
:102A9000D8E008AA944617232800634401340A2189
:102AA0001E1900F04DFF3031317028000A2100F06E
:102AB00047FF051EEAD10323249A1340012B00D1BE
:102AC000ECE0202C00D1C2E00D9B002B00D111E1E5
:102AD0002D23089A651C1355249B01950393239B72
:102AE0000293089B20E0249B52460493239B494673
:102AF0000393229B40460293209B219C00930194C8
:102B00005B46FFF7C9FC17B03CBC90469946A2460D
:102B1000AB46F0BD249B5B070ED40322534B249994
:102B20000192039123990291009352465B464946D4
:102B30004046FFF76FFBE6E74D4B0422EFE7209A94
:102B4000219B0020002101F066F9012380240D93D0
:102B5000249BE400209021911C4000D115E7229B8A
:102B6000092B00D808E1190030230EAA4E1E089246
:102B70001370092E00D1F9E0537008AA0C00944696
:102B80008E1E1721093C02236144302205E00133E7
:102B9000CA54013E202B00D1A3E09C42F7D1354B13
:102BA000F2009B181A685B6806920793F4E6249B70
:102BB0000393239B0293042301932F4BB4E7202C10
:102BC00040D0099D731E0A212800069300F0E0FE04
:102BD000089B3031195528000A2100F0D9FE671CE6
:102BE0000995092D00D892E0202F2BD0B11E069117
:102BF0000A2100F0CDFE089B3031D9550998642197
:102C000000F0C6FE099AA51C0700632A00D87FE0E1
:102C10003419013C14E0631B08AA06939446172359
:102C2000013563440A2138005E1900F0B1FE3031ED
:102C3000317038000A2100F0ABFE092F68D9070077
:102C4000202DE8D10323249A1340012B25D02025E1
:102C500042E7C046FFFFEFFFFFFFEF7F65CDCD41AD
:102C600065CDCDC180842E410000E03F5C6E001038
:102C7000606E0010786E00106C6E001000220A98D2
:102C80000B99494B01F03AF9002800D0BEE62B1E03
:102C900060D1099B01330993B8E62024239B002BC4
:102CA00000D10EE70D9B002B03D1249A0C33134265
:102CB00002D0239B013B2393239BA34200D800E730
:102CC00008AA9446172330226344202CBFD02399AE
:102CD00001341A558C4200D1F3E6202CF7D120257F
:102CE000FAE6324BF2009B185C681B680693079467
:102CF000202451E6249B5B0720D4249B25001B073E
:102D000000D4E9E62023089A01351355E4E63D0096
:102D1000202D97D008A98C461723069863444219A2
:102D20003021002826D001355955202D30D0AA4217
:102D3000F9D12E230899541C8B5485E62B23089A2D
:102D4000651C1355C8E60123AC462B409C446346E2
:102D50000C9379E6DB0700D458E69AE7249B0393AB
:102D6000239B029303230193114BDDE6012416E715
:102D70002C00A0E62A00DCE7DA001E000B4B9B18B3
:102D80005C681B68069307940EAB0024089303E667
:102D90000323249A1340012B00D09DE6239B002B94
:102DA00000D199E620247DE70000E03F786E001016
:102DB000686E0010F0B54546DE4657464E46E0B513
:102DC000A1B01D002A9B90460B93BD4ABD4B0A90B3
:102DD0008B461A60002900D10DE2002328789A461C
:102DE000002861D0B84B56469946C24609E0741C8B
:102DF000320053460A9E5946B047260028780028DC
:102E000050D001352528F2D1042328789846023B7A
:102E10009C460300203B691CDBB200240A00102BF7
:102E20000ED84F469B00FB589F4601230D001C43C4
:102E30002878691C0300203BDBB20A00102BF0D974
:102E40000300303B092B41D900272A286AD00023F0
:102E50000C932E2851D00300683BDBB2122B5FD8B5
:102E60009A499B00CB589F4663460D001C43DFE701
:102E700043460D001C43DBE710230D001C43D7E73E
:102E800008230D001C43D3E780235B0068781C43B4
:102E9000551C0300253BDBB2532BA8D88C4A9B0062
:102EA000D3589F46D046B2465246D04501D84346F5
:102EB0005A1E4346594600200A9CA047504621B05E
:102EC0003CBC90469946A246AB46F0BD00270300A5
:102ED00001E00D000131B800C0194000C0180B78A6
:102EE00030381A00303A0700092AF2D918000023B6
:102EF000AA1C0C930D002E28ADD180236878DB002E
:102F00001C430300303B092B00D877E12A2800D16D
:102F1000ABE10300683BDBB215000132122B9FD9F5
:102F20001500B6E70B9B80CB002F00DA5BE16878D9
:102F3000AA1C0B930D008AE768786C2800D14DE23B
:102F400080235B001C43551CA3E780239B0068780B
:102F50001C43551C9DE76878682800D139E280231E
:102F6000551C1C4395E70B9B04CB98460C9B0B927E
:102F70001078002B00D0A2E1002801D100F071FCF4
:102F800002235B425A1C0B9B944619000D9261442C
:102F900001E08B4206D001331A78002AF9D10B9A4E
:102FA0009B1A0D938023DB0023400E9305D00D9BCD
:102FB00019000C9B994200D90D93022323400F93D3
:102FC00000D140E2002800D126E20E9B002B00D168
:102FD000E6E141460C9B0C9129009C190B9B5D4638
:102FE0009B1B3200B8460B938B460AE053462900E0
:102FF0000A9F561CB8470B9B985D002800D104E23D
:1030000032009442F2D10C9B474698465B4626001C
:10301000AB461D000F9B002B00D0FDE143460B93F8
:10302000ECE60B9B04CB0B93002A00D128E1212373
:103030001C43A44610A988461F240F2144440023A2
:10304000884603E0202B00D124E10A0041461140CC
:10305000CFB238003730092900D807380133E0549F
:1030600011090F2AEED815E10B9B04330C93731C46
:103070000D939846A30700D406E20B9B3200187804
:10308000594653460A9CA047BE19012F00D8A7E213
:103090002B0042465546B0469A465E460A9F541C4F
:1030A0002B0031002020B84722004445F7D1534679
:1030B000B346AA4626001D000C9B0B939EE6C04615
:1030C000B52D0010BC1E00207C6C0010C06C0010E0
:1030D0000C6D0010782800D152E2582800D183E10D
:1030E0006F2800D1F3E0622800D156E310232200BC
:1030F0009A438023DB000D922340692800D0BCE373
:103100000A220E92002B00D146E201230D9A9A4327
:103110000D9280240D9BA40023409C46692800D179
:10312000E7E0642800D1E4E06346002B00D094E29D
:1031300080230D9A5B001A400B9B904604330F933B
:10314000002A00D02CE30D9B5B0600D544E20D9BCA
:103150001B0600D488E30B9B1B881800031E00D0BD
:103160004DE20D9A1033110099430D91520500D490
:1031700045E2002398460D9B059706930C9B04930C
:103180000E9B0393002302934346019318AB0093D5
:103190003200534659460A98FFF78AF80F9B0600FB
:1031A0000B932BE6462800D18EE007220B9B04945C
:1031B0000733934319000C9A039702920CC90A989B
:1031C000009201930B91320053465946FFF792FB50
:1031D000060013E6741C320053460A9E5946252009
:1031E000B04726000AE60222687814437F42AA1CF0
:1031F0000B930D002BE6D34B0A93EEE50023010061
:1032000000E02A009800C0184000401851780300E0
:1032100008003038551C303B0928F2D90C930800BF
:10322000023218E6202302009A43472A04D1802361
:103230001B011C4302239843452801D120231C4332
:1032400007220B9B04940733934319000C9A0397AE
:1032500002920CC90A98009201930B9132005346D6
:103260005946FFF719F90600C8E50B9BA87802CB71
:10327000CA43D21711400C91EA1C0B930235EAE5C0
:10328000102321009943113319438C460023610513
:1032900000D4CFE662460692082205920C9A049268
:1032A0001022039200220292019318AB0093320085
:1032B000534659460A98FEF7FBFF06009EE5002894
:1032C00000D1CDE2013B5DE620231C436DE70823DE
:1032D0000E9322000D948023DB001340642800D05D
:1032E000CEE2002B00D010E780241300A40023407E
:1032F0009C466346002B00D0E5E080230D9A5B00DE
:103300001A400B9B904604330F93002A00D0C6E16D
:103310000D9B5B0600D547E10D9B1B0600D499E28F
:103320000B9B00229B5ED9175A184A401000DA0FF7
:103330001492002B09D1802310220D99DB000B4041
:1033400091430D91002B00D050E10D9A612392061C
:1033500000D5412310AA1F249446DBB264440A3BE3
:10336000159716960B9346460700A84625000E9C17
:103370000AE03033DBB20136AB55A74200D231E16F
:10338000202E00D12EE107002100380000F000FBC4
:10339000CBB20929EDD90B9A94466344DBB2EAE734
:1033A0000B9B32009E1B33005E46AB4655469A4649
:1033B0000B970A9F2B003100541CB8475346185DE9
:1033C00022000028F6D1AA460B9F5D46B346260090
:1033D00020E6C023A8781C4303355AE5C0239B0090
:1033E000A8781C43033554E50C2322009A43143378
:1033F0001A430D92630500D5D3E080239B001C4047
:10340000F13BFF3BA4460E938EE60C9B4746984645
:103410005B46AB461D00FDE50D9B32009F4200D888
:10342000FCE5BE19F61A2B005D469B460A9F541C0C
:10343000534629002020B8472200B442F7D15B460A
:10344000AB461D00EAE50D9A531C974200D812E2E4
:10345000BB199B1A0D971F0032005E46AB460A9DB2
:10346000541C534631002020A8472200BC42F7D10B
:103470005D46B34626000D9F7B1C0D930B9B187871
:10348000002800D0A1E5C9E5012F00D8F0E1731EA6
:103490003200A846DF190A9E5D460D9C00E001340B
:1034A000534629002020B0472200BC42F7D1260015
:1034B000AB46454601360B9B3A00187859465346B1
:1034C0000A9CA047F8E507220B9B07339343013280
:1034D00094469C4462460B921A685B689C46DB17D4
:1034E0001293139312981399030053401093644658
:1034F0000B0063401193109B119C1B1A8C4110937D
:1035000011946346DB0F149363461A4350D00D9A0F
:103510006123920600D541230022DBB2904610AA17
:103520000A3B1F2494460F935B4664441793230081
:1035300015971696AB46109E119F44460E9D9846D1
:1035400010E0C046112200103032D2B2434601349E
:103550001A550023BB4200D167E1202C00D167E15E
:1035600006000F002A0000233000390000F052FA54
:10357000D2B2092AE8D90F9B9C466244D2B2E5E751
:1035800080231022DB0023400E920C2294430D94E2
:10359000002B00D1BDE5B8E580239B001C40A4466C
:1035A000A7E610230E93B0E50B9B1B781A00BDE62F
:1035B0000D9A1023110099430D915205A7D50023B0
:1035C00098460D9B059706930C9B04930E9B0393C3
:1035D000149B0293434667E60B9B1B781800BDE5DE
:1035E0000D9E69E54546159FB046169E0D9B0597B5
:1035F00006930C9B04930E9B0393149BC3E50D9AB7
:103600006123920600D5412310AA1F249446DBB201
:1036100064440A3B149715960B9346460700A84648
:1036200025000E9C08E03033DBB20136AB55A742D3
:103630000ED3202E0CD007002100380000F0A8F98E
:10364000CBB20929EFD90B9A94466344DBB2ECE77D
:103650004546149FB046159E8DE507220B9B073308
:103660009343013294469C4462460B921A6859680F
:103670001300100009910B435CD10D9A1033110017
:1036800099430D91520555D5002398460D9B0597FA
:1036900006930C9B04930E9B0393002399E70B9BCB
:1036A0001B68D9175A184A401000DA0F1692002BDF
:1036B00008D1802310220D99DB000B4091430D911E
:1036C000002B2CD10D9A6123920600D5412310AA1C
:1036D00090461F24DBB244440A3B14971596A84633
:1036E0000B932500070066460E9C08E03033DBB2E2
:1036F0000136AB55A7420ED3202E0CD00700210077
:10370000380000F045F9CBB20929EFD90B9A94465D
:103710006344DBB2ECE74546B446149F159E0D9B0F
:10372000059706930C9B04930E9B0393169B0293A1
:1037300063462AE50D9A6123920600D541230022B3
:10374000DBB2904610AA0A3B1F2494460F935B46B7
:10375000644414971596AB4646461693A0460E9DB4
:10376000099F04000BE03032D2B2434601369A552D
:103770000023BB4265D0202E65D004000F002A0034
:1037800000232000390000F045F9D2B2092AEAD915
:103790000F9B9C466244D2B2E7E702230E9398E562
:1037A0000B9B1B68181E08D1802310220D99DB008B
:1037B0000B4091430D91002B2CD10D9A6123920661
:1037C00000D5412310AA90461F24DBB244440A3B93
:1037D00014971596A8460B932500070066460E9C85
:1037E00008E03033DBB20136AB55A7420ED3202EB2
:1037F0000CD007002100380000F0CAF8CBB209292C
:10380000EFD90B9A94466344DBB2ECE74546B446E5
:10381000149F159E0D9B059706930C9B04930E9B7E
:103820000393002302936346AFE4B54200D894E6C5
:10383000179B109611975D46159F169EA0469B46B6
:10384000BFE6A54297D9169BB0465D46149F159ECC
:103850009B461BE70B9B1B68D9175A184A4065E526
:1038600000230D93FFF79EFB0B9B1B68180075E46C
:1038700037000D9E1FE60D9302E60A230E932AE5FC
:10388000140082E600B585B00391012102900093F7
:10389000034813004A4202A9FFF78CFA05B000BDA5
:1038A0008924001010B5094A84B01468002C09D08E
:1038B000012200910300524203A90548A0470120BC
:1038C00004B010BD01F0E0F80020F9E7BC1E0020B4
:1038D0007924001001480421014B184720140020CE
:1038E00005390010142310B50100188804331B8813
:1038F000984710BD162310B50100188802331B88A5
:10390000984710BDF0B5C64600B5002916D014235F
:103910000400012598461827890046184346216867
:1039200018883B88984701C4431E9841404205408F
:10393000A642F3D1280004BC9046F0BD0125F9E76A
:10394000124A936F9B0815D29066D166002905D064
:10395000FFE7FFE7FFE7516F106F704704B5802165
:103960000906C2175140002800D0C84303F078F878
:10397000002104BDF0B5146E556E576F166FFFF73A
:10398000E3FF1466556657671667F0BD000000D068
:10399000114A936F9B0813D210665166002905D017
:1039A000FFE7FFE7FFE7516F106F704704B500288E
:1039B00001D00020C04303F053F8002104BDC046ED
:1039C000F0B5146E556E576F166FFFF7E5FF14666E
:1039D000556657671667F0BD000000D094464E4A02
:1039E000926F9208624601D230E0C046F0B54A4E6E
:1039F000B56F6D08FCD3346E756E776F366F00F05F
:103A000025F89446444A1466556657671667624619
:103A1000F0BDC0469446404A926F9208624601D279
:103A200058E0C046F0B53C4EB56F6D08FCD3346E1F
:103A3000756E776F366F00F04DF89446364A14660F
:103A40005566576716676246F0BDC046002B24DBFB
:103A500011D000293EDA00B5C943404200D10131FE
:103A600000F038F8C943404200D10131DB435242F3
:103A700000D1013300BD002AEBD1002801D100297B
:103A800005D00020C90FC90701D1C043410800B5C6
:103A900002F0BEFF0022002300BD00B500290ADBB2
:103AA000DB43524200D1013300F014F8C9434042D5
:103AB00000D1013100BDC943404200D10131DB4397
:103AC000524200D1013300F005F8DB43524200D1ED
:103AD000013300BD002923D1002B18D1002A0CD0BE
:103AE000BC460D4F38667A6600210023FFE7FFE7EA
:103AF000FFE77A6F386F67467047002801D00748A4
:103B0000010000B502F084FF0022002300BD020086
:103B10000B00002000217047000000D0FFFFFFFFD6
:103B2000002B00D0BFE0130C28D1002AE7D080B4CE
:103B3000114F39667A66FFE7FFE730B4040C7B6FFC
:103B4000396F1B0423433B667A66FFE7FFE7FFE715
:103B5000C04684B27B6F3D6F1B0423433B667A668D
:103B6000FFE7FFE7C04600232C042D0C7A6F386F67
:103B700000196941B0BC7047000000D0F0B5944610
:103B80000025140E01D112020835140F01D11201C3
:103B90000435940F01D192000235D40F01D15200A7
:103BA0000135D40B0134254F7C66254C3C660E0C48
:103BB00093B2FFE7FFE7FFE73C6F6643360C7703FE
:103BC000BE467343DF0B5B04C01AB941130C734349
:103BD000DB18C91ACE086643360CB64493B2734359
:103BE0001F0F1B01C01AB941130C73431F0B1B0598
:103BF000C01AB941860D8F023E436643360C092D2B
:103C000024DB520A7243801A7703460A6643360C55
:103C100016235B1BDE40DF40BF1964466643821BF0
:103C20007046043506330100D940A840C01900D3BE
:103C30000131A24206D20023F0BD0000000000D0F6
:103C4000FFFFFFFF121B0130F3D3F1E709277F1BB2
:103C5000FE406446A2B27243801A00D20139220C9F
:103C60007243130C1204821A99410B0070460435FA
:103C700013370100F940A840801900D30131002B0F
:103C800002D1A2420AD2F0BD013000D30131121B91
:103C9000FAD2013BF8D1A24200D2F0BD013000D3EC
:103CA0000131121BF7E7F0B51C0C00D080E00CB41A
:103CB00000251C0A04D11B02160E334312020835DC
:103CC0001C0B04D11B01160F3343120104359C0B4E
:103CD00004D19B00960F334392000235DC0B02D1D6
:103CE00092185B4101351C00971864410134464F1E
:103CF0007C66464C3C660E0CFFE7FFE7FFE7C046DC
:103D00003C6F6643360C7703BE4697B27743C01BC1
:103D100000D20139C01B00D201399FB27743C91BC1
:103D2000C91B170C77437E04FF0B801BB941CE08DB
:103D30006643360C0C2D33DBB644120B1F053A4399
:103D40001B0B97B27743C01B00D201399FB2774358
:103D5000C91B170C77433E043F0C801BB941860DED
:103D60008F023E43664329277F1BFE400C3D77466A
:103D7000AF40BF1930BCA2B2ABB272437343801ADA
:103D80009941220C7243130C1204801A99410200CB
:103D90000B000137001BA941F9D2781E0021F0BDAC
:103DA0000C277F1BFE4077467F0BAF40FF19E0E7F3
:103DB00000245D1C07D0144F7D663966FFE7FFE7DE
:103DC000FFE7FFE73C6F95B29EB265436643401B39
:103DD000B141150C1E0C6543664336042F0C3E435F
:103DE0002D04401BB141994204D202000B00200077
:103DF0000021F0BD01D19042F7D3801A99410134DE
:103E00009942F2D3F6E70000000000D0FFFFFFFF69
:103E100048404140484018B41B4B5B68FC46019346
:103E200008BD04DFC740001018B4174B1B68FC46E0
:103E3000019308BD00DFD14000109446134A926FF1
:103E4000920809D2624618B40F4BDB68FC46019316
:103E500008BD0CDF894300100C4AF0B5146E556E96
:103E6000576F166F6246FFF7EEFF084A14665566F5
:103E700057671667F0BD18B4034B9B68FC46019367
:103E800008BD08DF2D420010201F0020000000D0D8
:103E9000FFB550404240504059404B40594000E02F
:103EA000FFB5154F4C00640D03D0BC4204D10C0388
:103EB00014D80020090D09055C00640D03D0BC4234
:103EC00004D11C030AD800221B0D1B0501264B4000
:103ED00009D44B4003D58B4200D18242FFBD9942A9
:103EE000FCD19042FFBD0B43DB1803431343F5D0D5
:103EF000C9434918FFBD0000FF07000000B5FFF7E8
:103F0000CFFF804100BDC04600B5FFF7C1FF01D91A
:103F1000002000BD012000BD00B5FFF7B9FF8041C2
:103F200000BD012040054A00121804D85A0012189A
:103F300001D8002070470120704700207047000022
:103F40000021002805D17047C1174840401AFAD017
:103F5000C90713B5064B1B6898470CBC441CA2400C
:103F60001005120B0349091B09051943114310BD24
:103F7000D01E00201F04000010B54C00620D8023ED
:103F8000D218DB00D21A5B057E2A10DD9E3A13DAC6
:103F9000CC170903490819435242D1406400013447
:103FA0001532202A05DAD0400843604310BD0020B6
:103FB00010BD0846604310BDC80FC018013810BDC1
:103FC00018B4044B5B6AFC46019308BD24DF3945F5
:103FD00000100000201F0020132370B51D78012D54
:103FE00015D010DD2648FFF785FC264C0100802205
:103FF000200000F087FB022D06D02348FFF772FC5B
:10400000224B186070BD1F4C214AA264F5E71D4C7D
:104010001F4AA3085B421D402FD02B0022602020A6
:10402000A9006118451B0A604A608A60CA600A617B
:104030004A618A61CA610A624A628A62CA620A6322
:104040004A638A63CA630A644A648A64CA640A6502
:104050004A658A65CA650A664A668A66CA660A67E2
:104060004A676D08102D03D18A67CA67A264C4E746
:104070001E339B00E250A264BFE70023CFE7C04697
:1040800053440000201F00204C330000D01E0020AD
:104090009540001007B5604601880A0A0230DF2A01
:1040A000FAD1C9B2820804D30288408800041043C0
:1040B00000E00068014A5050039007BD201F002017
:1040C0000FB403BC0CBCF0B50124E407634000E06E
:1040D000F0B50C0DCF0F661E3605891B640503D3A2
:1040E000C943404200D30131640D03D0661CF60A77
:1040F00007D0E41B00207F00791C89078912803CCF
:1041000024031D0DDF0F6E1E36059B1B6D0503D3AB
:10411000DB43524200D301336D0D03D06E1CF60A0F
:1041200007D0ED1B00227F007B1C9B079B12803D6C
:104130002D032F1B661B58D4A446202E46DA2037A9
:104140001400BC401D00BD40F24033412A4380189A
:104150005941CB0F05D0C943C043002264425041AE
:10416000514162464D0D28D10D0D07D100281FD0B9
:10417000241940414941013A0D0DF9D0640006D39C
:10418000013000D30131002C01D140084000013A38
:104190000BD4941CE40A04D112051144DB07194422
:1041A000F0BDD907204B194300E0D9070020F0BD2E
:1041B0000029DDD1002CDBD1F0BD0132C60740085B
:1041C000CD0728434908002EE1D0D9E73C2E29DA53
:1041D000203E40371400BC4000D00124F24014437C
:1041E0001A00BB401C43D317ACE7AC46202F08DABB
:1041F00020360400B4400D00B540F8403941284352
:10420000A5E73C2F0CDA203F40360400B44000D034
:104210000124F84004430800B1400C43C117EAE709
:1042200010001900002494E70000F07FF0B50C0D99
:10423000661E3605891BE60A6405640D02D0651CFE
:10424000ED0A04D0002001210905803C2403A44686
:104250001C0D671E3F05DB1BE70A6405640D02D0D9
:10426000651CED0A04D0002201231B05803C2403B9
:104270007740644497B484B296B27443070C7E438B
:10428000150C6F4380B26843361802D30120000436
:104290003F183004350C00197D41844688B29AB22B
:1042A00050430C0C62431F0C7C438EB27E43921928
:1042B00002D301263604A4191604170C36186741D8
:1042C00001BC81B29AB25143040C62431B0C5C43A3
:1042D00080B25843121802D301200004241810049D
:1042E000130C401863412D185E410020474106BC65
:1042F00088B293B258430C0C6343120C544389B2F6
:1043000051435B1802D301210904641819041A0CE3
:10431000091862416D1856410020474118BCF90246
:10432000720D1143F0026A0D1043ED020A0D03D124
:104330006D1940414941013B124E9B1B7600B3422F
:104340000ED26D0007D30130002671416646354319
:1043500001D1400840001B05C918E4072144F0BD05
:104360000BDA013306D1013004D101314F0D01D0F8
:104370004908F2E7E1070020F0BD013631050020D1
:10438000EBE70000FF030000F0B51C0D671E3F05C2
:10439000DB1BE70A6405640D02D0661CF60A04D034
:1043A000002201231B05803C2403D0252D06002676
:1043B000F6432E661E096E66CE0FF619B446490006
:1043C0004F0D02D07E1CF60A03D000200021403F92
:1043D0003F033E1BB600B444013F7F05C91B49089B
:1043E0002E6F013676089C02950D25437543ED131B
:1043F0007543AD1301356D10F603761B0CB4CC027A
:10440000450D2C43A2B2B3B25A43270C7B43350C63
:104410006F43A4B26C431B1902D3012424043F1937
:104420001C041D0CA4187D4124196D41009A91B201
:10443000ACB26143170C7C432B0C5F4392B25A43DE
:10444000A41802D301221204BF182204230C52180C
:104450007B41019C6C431B19520ED9010A43440154
:10446000A01A81B2B2B2514303145A43360C7343BB
:1044700087B27743D617D21900277E4136049B199D
:104480001704160C7F185E417316ED18F301002611
:1044900080337541A90F06D16400690AE8055B0AFB
:1044A000184309D22FE00422944480337541A90AAD
:1044B000A8059B0A184326D3404149412404009A89
:1044C000019B0D005543641B4343E41A95B286B229
:1044D0007543170C7E43030C5F4392B25A43B618E0
:1044E00002D301221204BF183204330C52197B414B
:1044F00052429C41002C02D400220130514140081C
:10450000CA071043490802B06246D7079210084B09
:10451000D218084B9A4203D212058918C919F0BD66
:104520000020002A01DC3900F0BD01331905F5E750
:10453000FD030000FE070000002200B5203200F05D
:1045400004F8080000BD000000220B150AD410B5C5
:10455000944600F031F81414013400DA0021CB172E
:10456000144C20470020002170476244343A0CD498
:104570000C2A07DA04009140904052422032D44085
:10458000214310BDD843D94310BD203207D40C4677
:104590009440524220321141D040204310BD0800C7
:1045A000C917203203D452422032104110BD1800E6
:1045B000190010BD6B4500100A0DCC0F531E1B05D2
:1045C000C91A520503D3C943404200D30131520DE9
:1045D00003D0531CDB0A07D0121B00206400611CAF
:1045E00089078912803A1203014BD21A70470000E2
:1045F000FF03000051434343C9188C46110C83B29A
:104600004B4310B4040C614392B280B250436243F6
:104610001C041B0C001910BC59411304120CC018C7
:104620005141614470470000132310B51C781348B2
:10463000FFF760F9012C0BD004DD01008022104847
:1046400000F060F80F48FFF74DF90F4B186010BDF0
:104650000B4C01005422200000F054F80B4B636512
:10466000A365E36523666366A366E3662367636702
:10467000A367E3672362E361E4E7C04653460000B3
:10468000202000204C330000D01E00209146001056
:1046900007B5604601880A0A0230DF2AFAD1C9B29A
:1046A000820804D3028840880004104300E00068B8
:1046B000014A5050039007BD2020002010B504008F
:1046C00001F034FB002804D0034B04199C4200D8AD
:1046D00010BD0248FDF7A8FB00000420C86E0010C2
:1046E00010B501F02DFB10BD01480421014B184706
:1046F0003014002005390010014B1B6818470000DA
:1047000030140020014B5B68184700003014002073
:1047100010B5FFF7D3FF10BD10B5FFF7E1FF10BDD7
:1047200010B5FFF7DDFF10BD030010B508001B68D2
:104730001100984710BDC046F8B54746CE4680B533
:10474000437C80460C001500002B43D0002A34DD4A
:104750000A78037C00200A2A33D0012D1ED0204B7A
:104760000121671E994602E03100B54216D0635C14
:104770007A5C4E1C0A2BF7D10D2AF5D043461B68F4
:10478000884204DA091A2018984743461B68022118
:104790004846984730003100B542E8D1854204DDF3
:1047A0004346291A1B68201898476419013C23784E
:1047B0000D3B5A425341424613740CBC90469946F5
:1047C000F8BD002BC9D14346054802211B68984714
:1047D0000120C2E70368110020009847EDE7C046BA
:1047E000386F0010F8B54E46DE4657464546344B06
:1047F000E0B51C688146002C4ED0324B9A46324BB5
:104800009B4602E0E468002C46D02368002BF9D0D8
:1048100052461268002A01D0A242F3D14F46627C70
:1048200040CF002A48D0002EECDD49460979227C91
:1048300000200A2939D0012E1ED04B4601215D1CD3
:1048400003E001354146464516D04B1C98462B796E
:10485000EA780A2BF5D10D2AF3D02368814203DDD3
:10486000091A381898472368022158469847013595
:10487000404641464645E8D1864203DD311A236869
:1048800038189847BF19013F3B780D3B5A425341B6
:104890002374E468002CB8D14A46002313603CBC62
:1048A00090469946A246AB46F8BD002AC3D10648B9
:1048B000083998470120BEE7310038009847A1E742
:1048C000AC1E0020B01E0020386F00100B6870B5C1
:1048D00005000C00802B04D05A1C2260E4182571BE
:1048E00070BD0800FFF77EFF2368F5E7F0B5DE46F0
:1048F00057464E464546E0B51E00D0231B0683B002
:104900001C68334B01AF80460D00180039009146FA
:104910009B4602F0B5F88246002808D1019B64B29C
:104920009C4204D0584602F0DBF801239A466B1CE7
:1049300003D1404601F00EFE0500002E28D1254E81
:10494000254B1C68002C16D04B46002B22D1234F40
:1049500002E0E468002C0ED02368002BF9D03B68FD
:10496000002B01D0A342F4D120002A004146B047D9
:10497000E468002CF0D15346002B25D1681E8541F8
:10498000E8B203B03CBC90469946A246AB46F0BDA7
:10499000134ED5E7114B994602E0E468002CEAD0AB
:1049A0002368002BF9D04B461B68002B01D0A34293
:1049B000F3D12A0041462000B0470A2301223900E2
:1049C00020003B70B047E8E7584602F019F8D5E7F9
:1049D000A01C002039470010AC1E0020B01E002093
:1049E00029470010F0B54746CE4680B583B06B46E8
:1049F000DF1CD02338701B061C68204B060001A961
:104A00001800984602F03CF8051E22D01C4B1C688A
:104A1000002C2AD01B4B994602E0E468002C10D0F1
:104A20002368002BF9D04B461B68002B01D0A34212
:104A3000F3D1200001223900FFF77EFEE468002C4C
:104A4000EED1002D11D1300003B00CBC9046994638
:104A5000F0BD019B64B29C420BD0404602F040F88E
:104A6000074B01251C68002CD4D1404601F0C8FF3B
:104A7000E9E7034B1C68002CCCD1E4E7A01C002024
:104A8000AC1E0020B01E002070B5040001F062FDD5
:104A900000230100050001222000FFF727FF084B3B
:104AA0001C68002C06D06368002B05D09847E4688A
:104AB000002CF8D1280070BDE468002CF3D1F9E790
:104AC000AC1E00200A4A1368002B05D10CE01A0026
:104AD000DB680C32002B07D09842F8D1002902D1B4
:104AE000C3681360C16070470029FCD01060FAE70A
:104AF000AC1E0020F0B5C646D02300B5204EA2B0B3
:104B00001B0607008846300001A91C6801F0B8FFA9
:104B1000051E07D1019B64B29C4203D0300001F016
:104B2000DFFF01358422002101A8FFF7E5FD4346A0
:104B30003A0001A91348FEF7A5FE019B0700002BD0
:104B400002D001A8FFF74EFE0F4B1C68002C06D0C8
:104B50006368002B0AD09847E468002CF8D1002D38
:104B600009D1380022B004BC9046F0BDE468002CA6
:104B7000EED1002DF5D0300001F042FFF1E7C04644
:104B8000A01C0020CD480010AC1E00200FB400B5C2
:104B900083B004A901C90191FFF7ACFF03B008BCC1
:104BA00004B0184710B500F045F810BDF0B5002965
:104BB00015DD0E4B0D271A680D4B4118D3185C42BA
:104BC00063410C4C5B001E5F20240578AE4207D089
:104BD00093691C42FCD1013015608842F5D1F0BDCB
:104BE00093691C42FCD11760F2E7C046101F0020F9
:104BF0000080FCBF1C1F002030B5002914DD0C4BC9
:104C00001A689369DB060FD400251024013801359A
:104C100093691C42FCD113684355A94202D09369A1
:104C20001C42F4D0280030BD03256D42FAE7C0468F
:104C3000101F0020E12110B50B4B0C481B780C4BCA
:104C400049021B780B4B1860FCF7D0FF02210020B3
:104C5000FBF7E8FD02210120FBF7E4FD01210648F6
:104C6000FFF730FF10BDC046047500100040034040
:104C700008750010101F00204014002010B50420FB
:104C800000F0ACFE024B034A0360034900F046F813
:104C9000F4700010655B0010D070001010B5012892
:104CA00012D80B00283B1A68501E1860012A00D049
:104CB00010BDDB6858310C00002B01D0080098476C
:104CC000200000F0A1FEF3E72839486900F078F8E9
:104CD00070B505000026803DEA602E60A9600400E2
:104CE00000F09CF8286100F093F823004722583B1D
:104CF00068611A7007325A7007329A702200432393
:104D0000553A13705370183B9370D370024B513C5B
:104D1000267028002B6370BD9D4C001070B50400F8
:104D20000D00160000F0CEFB4368320001334360F3
:104D300029002000FFF7CCFF012303602830040086
:104D400001F0C6FE200000F0D1FB00F04DF8C04697
:104D500010B500F0B7FB436804685A1C4260002C91
:104D60000CD02022A25C472A0AD000220260203404
:104D7000200001F0A5FE200000F0B8FB00F034F8A0
:104D8000263AA25C4E2AF0D12C3AA25C552AECD1EC
:104D9000323AA25C432AE8D11F3AA25C432AE4D10A
:104DA0001E3AA25C2B2AE0D1053AA25C2B2ADCD168
:104DB000043AA25C012AD8D863695A426261D6E7F4
:104DC00070B5804700F09EFF00F090FB00F09AFF66
:104DD0000D00040000F0C4FB6B1C01D000F0B4FC1B
:104DE000200000F031FCC046024B10B51868FFF7F8
:104DF000E7FFC0465414002010B58047FFF7F4FFCA
:104E0000024B10B51868FFF7F7FFC0465814002092
:104E1000014B18687047C04654140020014B1868B5
:104E20007047C04658140020F0B5D6464F46464657
:104E30008A46C0B5502825D00F2404400C2C00D938
:104E400073E03B4DA4002C59A746557814782D02E9
:104E50002543947824042543D47824062C43151D37
:104E6000002C08D070260640102E00D1924640B289
:104E70005444002819DB28001C601CBC904699464D
:104E8000A246F0BD032103328A43150010CDF2E79C
:104E9000557814782D022543947824042543D4783A
:104EA00024062C4315000835DAE72468E3E7547834
:104EB000157824022C43951CD2E7547815782402E7
:104EC0002C4324042414951CCAE77F2116000024D7
:104ED000002789463178751C4E460E40BE408C46F0
:104EE00049B2344307372E000029F3DB1F2FB7D810
:104EF00061464906B4D50126BE4076423443B1E747
:104F000000218C467F311700002488463E787D1CA6
:104F10004746614637408F400721894676B23C4379
:104F2000CC442F00002EF1DB9AE700F0EBFEC046E8
:104F30007C6F001010B5FF2815D070230340202B84
:104F400017D009D9402B10D0502B0CD0302B08D1C2
:104F5000080001F07DFD10BD0020002BFBD0102BC0
:104F6000F9D000F0CFFE0020F5E7080001F098FD31
:104F7000F1E7080001F03CFDEDE7C046F8B506009A
:104F80000F0014000020002E02D0300001F088FD38
:104F900020607D1C3F78FF2F2BD160602B78681C30
:104FA0002375FF2B35D010230200002500217F261A
:104FB0002375137832001A408A4001305BB21543E2
:104FC00007310200002BF4DB4519E56000250021C4
:104FD0007F260378013063753200037801301A4070
:104FE0008A405BB215430731002BF5DB451925617B
:104FF000F8BD31003800FFF79DFF231D01002A0096
:105000003800FFF711FF05002B78681C2375FF2B74
:10501000C9D10023E360D9E7F0B557464E46DE46D6
:1050200045460023E0B595B00A9303338A4691467E
:105030000340012B00D1A5E0002B00D08DE0030739
:1050400000D58DE001230EAE039353460E9300234B
:105050000C2200210096484601F0E2FC484601F08F
:105060004FFD0490002800D17AE0320004994846B0
:10507000FFF784FF49460500307DFFF75BFF0DAB6E
:10508000B0600F2200939B4600210023484601F0A8
:105090000FFD01220D9B9343013B984633699D42CE
:1050A00000D37EE07F274446737D00211800984698
:1050B000FFF740FF2A0001000BAB4046FFF7B4FEAC
:1050C000757D804600212800FFF734FF424601002D
:1050D0000CAB2800FFF7A8FE757D80460021280054
:1050E000FFF728FF424601005B462800FFF79CFEC1
:1050F0000021020000201378551C3A001A408A4013
:105100005BB2104307312A00002BF4DB0B993368A4
:105110008C466344A3422CD9039BDB073BD5002379
:10512000002405935B460D2200930021002348468E
:105130000A9D01F0BDFC53469C6206240D9A5D62F7
:105140001A62049ADA62059A1A63200015B03CBC10
:1051500090469946A246AB46F0BD022B00D0A7E18F
:105160004946504601F064FC09240028EDD108248A
:10517000EBE70C998C466344A34272D83369AB4287
:1051800092D8C9E70823184014D00223184303908B
:105190000E910EAE5BE70823039A134207D0FFF788
:1051A00023FE03990A42BAD108230B42F7D1504695
:1051B00000F03AFA0EAE0C6A002300960D22002190
:1051C000484601F075FC0E9B9C4202D002230393DB
:1051D0003BE7534600960E930C22002300214846DD
:1051E00001F01EFC53461B6B0593002BDFD053468A
:1051F0009C6ADB6A04930DAB9B460325002C44DBC1
:1052000053460D935B46002200930021002348463D
:1052100001F006FC5B460122009300210023484672
:105220000D9401F0FDFB5B460F220093002100234B
:10523000484601F03DFC01230D9A00211340059AD8
:10524000484613430D935B460F220093002301F061
:10525000E7FB0724022D00D077E7504600F0E2FA82
:1052600073E70D9B0400002B00D179E77268944628
:1052700063440593002829D1002B00D170E7039BDC
:10528000DB0700D56CE70225BAE7631C0793320001
:1052900004994846FFF772FE4946307DFFF74AFE03
:1052A000079BF1689B00B060C91A0B68002B05D002
:1052B000002301339A008A58002AFAD15246936299
:1052C0000423D06213635163032599E73369451EB4
:1052D0009C46059B6544002B00D141E7002D00D181
:1052E000D0E00823039A1A40089200D1D1E0524638
:1052F0003F3313700733537007339370123BD370EF
:105300000333137109335371033393710023D37142
:10531000002306934B467F27B1462E0009930024B5
:1053200000213A003078731C02408A40144342B294
:105330001D0007311E00002AF3DB1F2906D840227A
:10534000024203D03F3A8A405242144300260021D1
:105350003A001878013302408A40164342B20731BE
:10536000002AF5DB1F2906D84023034203D03F3B28
:105370008B405B421E43002C13D015DC631C119A3A
:1053800007939B00D31A984619685346002B02D006
:10539000089B002B43D000292BD0002E6CD0AE19D7
:1053A000BDE701230693F8E74B46187DFF2856D04A
:1053B00007230340022B4FD02CD9032B2CD0042BD6
:1053C00076D1E20052424B46DB6849469C468968EA
:1053D00062445B46FFF728FD0D99002909D053462A
:1053E000002BDAD00AAB0022504600F0B3F90028B7
:1053F000D3D0099B4E469946039BDB0700D591E627
:10540000089B002B00D1F8E60325002C00DBF7E613
:10541000FFF7F6FC002B4BD1A2005242D3E70A9BC8
:105420000D93002940D05B46AB465546A246444604
:10543000B0461E0003E004342168002911D0611831
:1054400033000022280000F085F90028F3D0AA4696
:105450005D46B3464646A0E762005242B3E70022EB
:10546000B1E7099B5446B346AA464E469946039B6C
:10547000DB0700D556E60AE7099B9946069B002BF9
:1054800000D16DE6039BDB0700D569E60024022509
:10549000B6E65346DA795833012A01D00A9337E742
:1054A000783B1B680A9333E7099B4E469946DEE733
:1054B00000F028FC00F01AF871E6C046004870477A
:1054C000181E002000487047181E00207047C04674
:1054D0007047C04600487047B06F001010B5040018
:1054E0000421FFF71DF9200010BDC04670B504006F
:1054F000FFF7E8FF230022780568203B472A04D005
:10550000002D2BD10360280070BD62784E2AF7D1A0
:10551000A278552AF4D1E278432AF1D12279432A9C
:10552000EED162792B2AEBD1A2792B2AE8D1E2794C
:10553000012AE5D85A69002A0DDB01325A61426816
:10554000013A42609D4201D01D6103602000656AFE
:1055500001F09EFAD7E701218A1AEFE7FFF744FC32
:1055600010B5FFF7ABFF0368002B09D020229A5C2F
:10557000472A06D0002220330260180001F060FAAA
:1055800010BD263A9A5C4E2AF4D12C3A9A5C552AE0
:10559000F0D1323A9A5C432AECD11F3A9A5C432A02
:1055A000E8D11E3A9A5C2B2AE4D1053A9A5C2B2A60
:1055B000E0D1043A9A5C012ADCD85A69002A07DB58
:1055C000013A002A0BD001DB5A61D9E7FFF70CFC46
:1055D0000132002AF8D1196901605A61D0E71A69CD
:1055E00020330260180001F02BFAC9E702780300AB
:1055F0000020472A00D070475A784E2AFBD19A786B
:10560000552AF8D1DA78432AF5D11A79432AF2D10A
:105610005A792B2AEFD19A792B2AECD1DB792A3AC5
:105620009A424041C0B2E6E710B5041E06D0FFF72B
:105630005DFF2000FFF7DAFF002801D1FFF7D4FB60
:10564000203CE068FFF7BCFBF0B54E46DE4657460F
:105650004546E0B585B00600FFF7C8FF00280BD02F
:105660003300203B9A68DC68B36A91469A4600236F
:10567000376B756B984606E0012304008146984617
:105680000500070082463000FFF730FF4346002B3D
:1056900001D0FFF7B5FB4846FFF7AEFBFFF726FF4B
:1056A0004346002B01D0FFF79FFBFFF707FF27239F
:1056B0000668F25C33007833012A00D13368BF08F2
:1056C0000293BB000193002399462036CA4520DD92
:1056D0002F68002F00D07F1902AB00223900300064
:1056E00000F038F8002801D0FFF732FB3B68039048
:1056F0001B6903AA9B46114901233800D84700289B
:1057000000D0804601239C46019BE1449C466544B1
:10571000DCE74346002B08D0042000F05FF9084B7B
:10572000084A03600549FFF7F9FA2000FFF748FB34
:10573000FFF716FFFFF714FF00F006F8D46F001014
:1057400058700010D15400101EB400F09BF81EBC1D
:1057500001F08EF9F0B5C64600B59846037882B0E0
:105760000E00472B1DD000232C4C019323682000F2
:105770009B689847012500280ED1336801AA1F694C
:10578000210001233000B847002831D1002528002E
:1057900002B004BC9046F0BD019B01351B6801932B
:1057A000EBE743784E2BDED18378552BDBD1C378E2
:1057B000432BD8D10379462B24D00379432BD2D164
:1057C00043792B2BCFD183792B2BCCD1C279012AD2
:1057D000C9D80300203B1C685830012A0CD0019026
:1057E000236820009B68984701250028C5D0D3E78F
:1057F0004346019A1A60CAE723002000783B1C68E0
:105800000190EDE743794F2BD7D18379522BD4D137
:10581000C379002BD1D10193014CA7E7CC6F0010C5
:10582000C46F001010B50400FFF74CFE230022786F
:10583000203B472A05D08268002A20D183600120BE
:1058400010BD62784E2AF6D1A278552AF3D1E278BB
:10585000432AF0D12279432AEDD162792B2AEAD169
:10586000A2792B2AE7D1E279012AE4D8DA69013258
:10587000DA61012AE3D182689A618360DFE7FFF78A
:10588000B3FAC04610B5FFF71DFE8368002B2ED07B
:1058900020229A5C472A04D000228260203318001C
:1058A00010BD263A9A5C4E2AF6D12C3A9A5C552ABB
:1058B000F2D1323A9A5C432AEED11F3A9A5C432ADB
:1058C000EAD11E3A9A5C2B2AE6D1053A9A5C2B2A39
:1058D000E2D1043A9A5C012ADED8DA69013ADA6147
:1058E000002ADBD19A69826000229A61D6E7FFF72D
:1058F0007BFAC04670B51F4C08386368002B1FD078
:1059000006688519AB421BD8596825D0002929D0D3
:105910008D4204D32AE00B00954204D211004A685C
:105920001C1D002AF7D1954210D023681A689918D7
:10593000884208D05B68066043602368586001E0D5
:105940004360606070BD96191E60FBE72B689C4643
:105950006B6866444B60E8E71B6841609E1906600F
:105960006060EFE7002219000434DCE70A00043429
:105970001900D8E7241E00200200083230B5082A9A
:1059800000D208220723144C07329A436368002B85
:105990001CD019688A4204D81AE001688A4204D9E6
:1059A000030058680028F8D130BD04338C1A4568CC
:1059B000072C07D981184D6018680C6002601960C7
:1059C0000830F1E701601D600830EDE70020EBE7EB
:1059D0001800231DEAE7C046241E002070B5803061
:1059E0000500FEF76BFE041E07D080220021200078
:1059F000FEF782FE2000803070BD2800FFF7BCFF5C
:105A0000041EF2D1FFF7F0F9074A8038936810B509
:105A1000984203D9D2689B18984202D3FEF760FEE1
:105A200010BDFFF767FFFBE7241E002070B59E2521
:105A3000084C2D012800E560FEF740FEA06000281C
:105A400004D0002360600560436070BDE06060606A
:105A5000FBE7C046241E002030B585B000231400AB
:105A60006A461371102200930393036802929D69A2
:105A700022686B46A8476B461A790623002013401C
:105A8000062B02D1009B0130236005B030BDC0461B
:105A9000009B981A421E90410423404298430630CE
:105AA0007047C04610B50400034B0833036000F094
:105AB00075F8200010BDC0469470001010B50400A9
:105AC000054B0833036000F069F820000821FEF759
:105AD00027FE200010BDC0469470001070B516005F
